:1000000009C021C020C01FC01EC01DC01CC01BC015
:100010001AC06AC011241FBECFE9CDBF10E0A0E610
:10002000B0E0ECE3F1E002C005900D92A036B1071C
:10003000D9F710E0A0E6B0E001C01D92A036B107EC
:10004000E1F75CD079C0DCCF382F662361F028B3AC
:1000500081E090E0032E02C0880F991F0A94E2F716
:10006000282B28BB0CC028B381E090E0032E02C0EF
:10007000880F991F0A94E2F78095822388BB27B3E3
:1000800081E090E002C0880F991F3A95E2F7282B93
:1000900027BB0895282F8A30A0F086B1886886B9DA
:1000A0003D9A789487B12A508C7F822B87B986B18C
:1000B000806586B93699FECF86B1877786B995B1C6
:1000C00011C037B381E090E002C0880F991F2A95D4
:1000D000E2F7282F2095232327BB28B3282B28BB02
:1000E00096B39823892F08951F920F920FB60F92FF
:1000F00011240F900FBE0F901F901895C098B89ABA
:10010000C09AB89A8BE0C6DF90E0880F991F20E074
:1001100030E003C000002F5F3F4F28173907D0F3AE
:10012000C098B89A20E030E003C000002F5F3F4F36
:0C0130002817390728F7F9CFF894FFCF03
:00000001FF
