:1000000009C021C020C01FC01EC01DC01CC01BC015
:100010001AC06AC011241FBECFE9CDBF10E0A0E610
:10002000B0E0E4EAF3E002C005900D92A038B10719
:10003000D9F710E0A0E8B0E001C01D92AB38B107DD
:10004000E1F700D1ADC1DCCF382F662361F028B3D2
:1000500081E090E0032E02C0880F991F0A94E2F716
:10006000282B28BB0CC028B381E090E0032E02C0EF
:10007000880F991F0A94E2F78095822388BB27B3E3
:1000800081E090E002C0880F991F3A95E2F7282B93
:1000900027BB0895282F8A30A0F086B1886886B9DA
:1000A0003D9A789487B12A508C7F822B87B986B18C
:1000B000806586B93699FECF86B1877786B995B1C6
:1000C00011C037B381E090E002C0880F991F2A95D4
:1000D000E2F7282F2095232327BB28B3282B28BB02
:1000E00096B39823892F08951F920F920FB60F92FF
:1000F00011240F900FBE0F901F901895AF92BF92D2
:10010000CF92DF92EF92FF920F931F934091800066
:1001100050918100609182007091830041155105DA
:100120006105710509F43EC0A0908500B09086007D
:10013000C0908700D09088002091890030918A007B
:10014000EE24FF24870125C0C39ABB9A20E030E04B
:1001500001C00000C901A0E0B0E02F5F3F4F84174D
:100160009507A607B707A8F3C398BB9A20E030E02D
:1001700002C000009F01F9013196C901A0E0B0E082
:1001800084179507A607B707A0F3E40EF51E061F10
:10019000171FEA14FB040C051D05B0F230938A000A
:1001A000209389001F910F91FF90EF90DF90CF90E7
:1001B000BF90AF9008952F923F924F925F926F92AF
:1001C0007F928F929F92AF92BF92CF92DF92EF92E7
:1001D000FF920F931F93DF93CF93CDB7DEB73B0111
:1001E0004C0119012A016D897E898F89988D6A19C0
:1001F0007B098C099D09621A730A840A950AA40175
:10020000930187D0E218F30804091509A8019701A2
:10021000A5D02A0D3B1D4C1D5D1DB901CA01CF9112
:10022000DF911F910F91FF90EF90DF90CF90BF90E3
:10023000AF909F908F907F906F905F904F903F9086
:100240002F9008950F931F93CF93DF93C398BB9A7A
:100250004BC0FE01EE0FFF1FE05AFF4F00811181DE
:100260008BE018DF65E06ED090E0B80140D0A0E0F0
:10027000B0E08093800090938100A0938200B093BF
:100280008300FE01EE58FF4F8081809384006091CF
:100290007D0070917E0090E02AD0A0E0B0E08093D5
:1002A000850090938600A0938700B093880026DF96
:1002B000219680917B0090917C00C817D90748F265
:1002C000C198B99A80E090E0A0E0B0E0000001960B
:1002D000A11DB11D80342DE0920723E0A20720E08C
:1002E000B207A1F7C19AB99AC0E0D0E0E2CF552792
:1002F000002480FF02C0060E571F660F771F61158E
:10030000710521F096958795009799F7952F802D87
:100310000895FF27EE27BB27AA2760FF04C0A20F7E
:10032000B31FE41FF51F220F331F441F551F96955F
:1003300087957795679589F70097760771F7CF01CD
:10034000BD010895991B79E004C0991F961708F024
:10035000961B881F7A95C9F780950895A1E21A2EF9
:10036000AA1BBB1BFD010DC0AA1FBB1FEE1FFF1F59
:10037000A217B307E407F50720F0A21BB30BE40BA9
:10038000F50B661F771F881F991F1A9469F76095F0
:100390007095809590959B01AC01BD01CF010895AA
:0403A000F894FFCFFF
:1003A4000300030003000300030003000300030031
:1003B4000300140F1916070756022D12003B010003
:00000001FF
