:1000000009C021C020C01FC01EC01DC01CC01BC015
:100010001AC06AC011241FBECFE9CDBF10E0A0E610
:10002000B0E0ECECF2E002C005900D92A838B10708
:10003000D9F710E0A8E8B0E001C01D92A039B107DF
:10004000E1F7AFD041C1DCCF382F662361F028B390
:1000500081E090E0032E02C0880F991F0A94E2F716
:10006000282B28BB0CC028B381E090E0032E02C0EF
:10007000880F991F0A94E2F78095822388BB27B3E3
:1000800081E090E002C0880F991F3A95E2F7282B93
:1000900027BB0895282F8A30A0F086B1886886B9DA
:1000A0003D9A789487B12A508C7F822B87B986B18C
:1000B000806586B93699FECF86B1877786B995B1C6
:1000C00011C037B381E090E002C0880F991F2A95D4
:1000D000E2F7282F2095232327BB28B3282B28BB02
:1000E00096B39823892F08951F920F920FB60F92FF
:1000F00011240F900FBE0F901F901895AF92BF92D2
:10010000CF92DF92EF92FF920F931F9320918C007A
:10011000222309F43DC0A0908800B0908900C090CF
:100120008A00D0908B00A0918E0080918F0040E0DB
:1001300050E060E070E0E22FF0E0E22EFF2400E00B
:1001400010E01DC0C39ABB9A20E030E003C000005D
:100150002F5F3F4FCF01AE2F892F2E173F07B8F3E8
:10016000C398BB9A20E030E003C000002F5F3F4FF0
:100170002E173F07D0F34E0D5F1D601F711F4A15EC
:100180005B056C057D05F0F2A0938E0080938F00D7
:100190001F910F91FF90EF90DF90CF90BF90AF90A5
:1001A00008950F931F93CF93DF93C398BB9AC49A7C
:1001B000BC9A00E610E0C0E0D0E01EC0F8018081EB
:1001C00080938C00FE01E059FF4F808180938D0069
:1001D000609186007091870090E064D0A0E0B0E06C
:1001E0008093880090938900A0938A00B0938B003D
:1001F00085DF21960E5F1F4F8091840090E0C81725
:10020000D907E4F2C498BC9A80E090E0A0E0B0E0A6
:1002100000000196A11DB11D803DF2E19F07F3E1B1
:10022000AF07F0E0BF07A1F7C49ABC9A08E710E057
:10023000C0E0D0E01EC0F801808180938C00FE01F8
:10024000E058FF4F808180938D006091860070910F
:10025000870090E027D0A0E0B0E0809388009093E2
:100260008900A0938A00B0938B0048DF21960E5F2F
:100270001F4F8091840090E0C817D907E4F2C4981A
:10028000BC9A80E090E0A0E0B0E000000196A11DE3
:10029000B11D803DF2E19F07F3E1AF07F0E0BF073A
:1002A000A1F785CF5527002480FF02C0060E571FF7
:1002B000660F771F6115710521F096958795009758
:0C02C00099F7952F802D0895F894FFCF3A
:1002CC00F609F609F609F609F609F609F6091027F2
:1002DC000606060606060609F609E0086108EC079C
:0802EC000402020410083B01AA
:00000001FF
