:1000000009C021C020C01FC01EC01DC01CC01BC015
:100010001AC06AC011241FBECFE9CDBF10E0A0E610
:10002000B0E0E0E8F3E002C005900D92A038B1071F
:10003000D9F710E0A0E8B0E001C01D92A838B107E0
:10004000E1F7F6D09BC1DCCF382F662361F028B3EF
:1000500081E090E0032E02C0880F991F0A94E2F716
:10006000282B28BB0CC028B381E090E0032E02C0EF
:10007000880F991F0A94E2F78095822388BB27B3E3
:1000800081E090E002C0880F991F3A95E2F7282B93
:1000900027BB0895282F8A30A0F086B1886886B9DA
:1000A0003D9A789487B12A508C7F822B87B986B18C
:1000B000806586B93699FECF86B1877786B995B1C6
:1000C00011C037B381E090E002C0880F991F2A95D4
:1000D000E2F7282F2095232327BB28B3282B28BB02
:1000E00096B39823892F08951F920F920FB60F92FF
:1000F00011240F900FBE0F901F901895AF92BF92D2
:10010000CF92DF92EF92FF920F931F932091800086
:10011000222309F43DC0A0908200B0908300C090DB
:100120008400D0908500A09186008091870040E0F7
:1001300050E060E070E0E22FF0E0E22EFF2400E00B
:1001400010E01DC0C39ABB9A20E030E003C000005D
:100150002F5F3F4FCF01AE2F892F2E173F07B8F3E8
:10016000C398BB9A20E030E003C000002F5F3F4FF0
:100170002E173F07D0F34E0D5F1D601F711F4A15EC
:100180005B056C057D05F0F2A093860080938700E7
:100190001F910F91FF90EF90DF90CF90BF90AF90A5
:1001A00008952F923F924F925F926F927F928F921B
:1001B0009F92AF92BF92CF92DF92EF92FF920F93F6
:1001C0001F93DF93CF93CDB7DEB73B014C011901ED
:1001D0002A016D897E898F89988D6A197B098C091E
:1001E0009D09621A730A840A950AA40193018BD0AF
:1001F000E218F30804091509A80197019DD02A0DFA
:100200003B1D4C1D5D1DB901CA01CF91DF911F91AE
:100210000F91FF90EF90DF90CF90BF90AF909F90A5
:100220008F907F906F905F904F903F902F900895A8
:10023000CF93DF93C398BB9A51C0FE01EE0FFF1F0F
:10024000E05AFF4F808180938000FE01EE58FF4FFF
:1002500080818093810060917D0070917E0090E0AC
:1002600040D0A0E0B0E08093820090938300A09300
:100270008400B093850042DF219680917B009091AD
:100280007C00C817D907C8F2C198B99A8BE002DF81
:1002900090E0A0E0B0E0BC01CD0120E836E948E9FB
:1002A00050E031D02FEF30E040E050E045D0C901C0
:1002B000DA0180539547A040B04020E030E040E0B4
:1002C00050E005C000002F5F3F4F4F4F5F4F281792
:1002D00039074A075B07B0F3C19AB99AC0E0D0E08A
:1002E000CCCF5527002480FF02C0060E571F660F93
:1002F000771F6115710521F096958795009799F7FD
:10030000952F802D0895FF27EE27BB27AA2760FF92
:1003100004C0A20FB31FE41FF51F220F331F441F99
:10032000551F969587957795679589F70097760776
:1003300071F7CF01BD010895A1E21A2EAA1BBB1BC4
:10034000FD010DC0AA1FBB1FEE1FFF1FA217B307A1
:10035000E407F50720F0A21BB30BE40BF50B661FB7
:10036000771F881F991F1A9469F76095709580957B
:1003700090959B01AC01BD01CF010895F894FFCF8A
:10038000A6064806EC059805FD047004980570045F
:10039000102704040303030202020112003B0100C0
:00000001FF
