:1000000009C021C020C01FC01EC01DC01CC01BC015
:100010001AC06AC011241FBECFE9CDBF10E0A0E610
:10002000B0E0EAE9F3E002C005900D92AE37B10707
:10003000D9F710E0AEE7B0E001C01D92A638B107D5
:10004000E1F7F6D0A8C1DCCF382F662361F028B3E2
:1000500081E090E0032E02C0880F991F0A94E2F716
:10006000282B28BB0CC028B381E090E0032E02C0EF
:10007000880F991F0A94E2F78095822388BB27B3E3
:1000800081E090E002C0880F991F3A95E2F7282B93
:1000900027BB0895282F8A30A0F086B1886886B9DA
:1000A0003D9A789487B12A508C7F822B87B986B18C
:1000B000806586B93699FECF86B1877786B995B1C6
:1000C00011C037B381E090E002C0880F991F2A95D4
:1000D000E2F7282F2095232327BB28B3282B28BB02
:1000E00096B39823892F08951F920F920FB60F92FF
:1000F00011240F900FBE0F901F901895AF92BF92D2
:10010000CF92DF92EF92FF920F931F932091820084
:10011000222309F43DC0A0907E00B0907F00C090E3
:100120008000D0908100A09184008091850040E003
:1001300050E060E070E0E22FF0E0E22EFF2400E00B
:1001400010E01DC0C39ABB9A20E030E003C000005D
:100150002F5F3F4FCF01AE2F892F2E173F07B8F3E8
:10016000C398BB9A20E030E003C000002F5F3F4FF0
:100170002E173F07D0F34E0D5F1D601F711F4A15EC
:100180005B056C057D05F0F2A093840080938500EB
:100190001F910F91FF90EF90DF90CF90BF90AF90A5
:1001A00008952F923F924F925F926F927F928F921B
:1001B0009F92AF92BF92CF92DF92EF92FF920F93F6
:1001C0001F93DF93CF93CDB7DEB73B014C011901ED
:1001D0002A016D897E898F89988D6A197B098C091E
:1001E0009D09621A730A840A950AA401930198D0A2
:1001F000E218F30804091509A8019701AAD02A0DED
:100200003B1D4C1D5D1DB901CA01CF91DF911F91AE
:100210000F91FF90EF90DF90CF90BF90AF909F90A5
:100220008F907F906F905F904F903F902F900895A8
:10023000FF920F931F93CF93DF93C398BB9AC0E0B5
:10024000D0E0FF24F39420C0FE01EE0FFF1FE05A20
:10025000FF4F808180938200FE01E059FF4F808133
:100260008093830060917A0070917B0090E046D08B
:10027000A0E0B0E080937E0090937F00A093800088
:10028000B09381003BDF21968091780090917900B6
:10029000C817D907C8F2C19AB99A8BE0FBDE182FAC
:1002A00000917C008BE0F6DE80937C00882311F4C3
:1002B000F0927C00812F90E0602F70E01FD0AA2781
:1002C00097FDA095BA2FBC01CD0120E931E040E0B7
:1002D00050E026D020E030E040E050E005C00000D3
:1002E0002F5F3F4F4F4F5F4F26173707480759077C
:1002F000B0F3C198B99AC0E0D0E0C6CF552700242A
:1003000080FF02C0060E571F660F771F611571052B
:1003100021F096958795009799F7952F802D089550
:10032000FF27EE27BB27AA2760FF04C0A20FB31F39
:10033000E41FF51F220F331F441F551F9695879505
:100340007795679589F70097760771F7CF01BD011B
:100350000895A1E21A2EAA1BBB1BFD010DC0AA1F06
:10036000BB1FEE1FFF1FA217B307E407F50720F01E
:10037000A21BB30BE40BF50B661F771F881F991F99
:100380001A9469F760957095809590959B01AC01E2
:0A039000BD01CF010895F894FFCFDE
:10039A00F60E8F0CF60EDE0B300BF60EE10F102761
:0E03AA00060606060606060910003B01640062
:00000001FF
