:1000000009C021C020C01FC01EC01DC01CC01BC015
:100010001AC06AC011241FBECFE9CDBF10E0A0E610
:10002000B0E0ECEAF3E002C005900D92AA36B10709
:10003000D9F710E0AAE6B0E001C01D92A437B107DD
:10004000E1F7F6D0B1C1DCCF382F662361F028B3D9
:1000500081E090E0032E02C0880F991F0A94E2F716
:10006000282B28BB0CC028B381E090E0032E02C0EF
:10007000880F991F0A94E2F78095822388BB27B3E3
:1000800081E090E002C0880F991F3A95E2F7282B93
:1000900027BB0895282F8A30A0F086B1886886B9DA
:1000A0003D9A789487B12A508C7F822B87B986B18C
:1000B000806586B93699FECF86B1877786B995B1C6
:1000C00011C037B381E090E002C0880F991F2A95D4
:1000D000E2F7282F2095232327BB28B3282B28BB02
:1000E00096B39823892F08951F920F920FB60F92FF
:1000F00011240F900FBE0F901F901895AF92BF92D2
:10010000CF92DF92EF92FF920F931F9320916A009C
:10011000222309F43DC0A0906C00B0906D00C09007
:100120006E00D0906F00A09172008091730040E04B
:1001300050E060E070E0E22FF0E0E22EFF2400E00B
:1001400010E01DC0C39ABB9A20E030E003C000005D
:100150002F5F3F4FCF01AE2F892F2E173F07B8F3E8
:10016000C398BB9A20E030E003C000002F5F3F4FF0
:100170002E173F07D0F34E0D5F1D601F711F4A15EC
:100180005B056C057D05F0F2A0937200809373000F
:100190001F910F91FF90EF90DF90CF90BF90AF90A5
:1001A00008952F923F924F925F926F927F928F921B
:1001B0009F92AF92BF92CF92DF92EF92FF920F93F6
:1001C0001F93DF93CF93CDB7DEB73B014C011901ED
:1001D0002A016D897E898F89988D6A197B098C091E
:1001E0009D09621A730A840A950AA4019301A1D099
:1001F000E218F30804091509A8019701B3D02A0DE4
:100200003B1D4C1D5D1DB901CA01CF91DF911F91AE
:100210000F91FF90EF90DF90CF90BF90AF909F90A5
:100220008F907F906F905F904F903F902F900895A8
:10023000AF92BF92CF92DF92EF92FF920F931F93F4
:10024000CF93DF93C398BB9A8BE024DF8695A82ECB
:10025000BB24EE24FF2444C0C19AB99A00E610E002
:10026000C0E0D0E01EC0F801808180936A00FE01EA
:10027000EC59FF4F808180936B0060916800709112
:10028000690090E044D0A0E0B0E080936C009093CF
:100290006D00A0936E00B0936F0030DF21960E5F6B
:1002A0001F4F8091660090916700C817D907D8F258
:1002B000C198B99A8BE0EEDE90E0A0E0B0E0BC011E
:1002C000CD0120EE30E742E750E033D02FEF30E0B1
:1002D00040E050E047D069018A010894E11CF11C1C
:1002E000EA14FB040CF4B8CFC601D80120E030E0DA
:1002F00040E050E005C000002F5F3F4F4F4F5F4F81
:10030000281739074A075B0708F09ECFF4CF552717
:10031000002480FF02C0060E571F660F771F61156D
:10032000710521F096958795009799F7952F802D67
:100330000895FF27EE27BB27AA2760FF04C0A20F5E
:10034000B31FE41FF51F220F331F441F551F96953F
:1003500087957795679589F70097760771F7CF01AD
:10036000BD010895A1E21A2EAA1BBB1BFD010DC001
:10037000AA1FBB1FEE1FFF1FA217B307E407F50755
:1003800020F0A21BB30BE40BF50B661F771F881F31
:10039000991F1A9469F760957095809590959B01C7
:0C03A000AC01BD01CF010895F894FFCF1F
:0A03AC00A606983A0C0404003B0179
:00000001FF
